:1000000008000220410200007D1100007F11000065
:100010008111000083110000851100000000000024
:100020000000000000000000000000008711000038
:1000300089110000000000008B1100008D110000EC
:100040008F1100008F1100008F1100008F11000030
:100050008F1100008F1100008F1100008F11000020
:100060008F1100008F1100008F1100008F11000010
:100070008F1100008F1100008F1100008F11000000
:100080008F1100008F1100008F1100008F110000F0
:100090008F1100008F1100008F1100008F110000E0
:1000A0008F1100008F1100008F1100008F110000D0
:1000B0008F1100008F1100008F1100008F110000C0
:1000C0008F1100008F1100008F1100008F110000B0
:1000D0008F1100008F1100008F1100008F110000A0
:1000E0008F1100008F1100008F1100008F11000090
:1000F0008F1100008F1100008F1100008F11000080
:100100008F1100008F1100008F1100008F1100006F
:100110008F1100008F1100008F1100008F1100005F
:100120008F1100008F1100008F1100008F1100004F
:100130008F1100008F1100008F1100008F1100003F
:100140008F1100008F1100008F1100008F1100002F
:100150008F1100008F1100008F1100008F1100001F
:100160008F1100008F1100008F1100008F1100000F
:100170008F1100008F1100008F1100008F110000FF
:100180008F1100008F1100008F1100008F110000EF
:100190008F1100008F1100008F1100008F110000DF
:1001A0008F1100008F1100008F1100008F110000CF
:1001B0008F1100008F1100008F1100008F110000BF
:1001C0008F1100008F1100008F1100008F110000AF
:1001D0008F1100008F1100008F1100008F1100009F
:1001E0008F1100008F1100008F1100008F1100008F
:1001F0008F1100008F1100008F1100008F1100007F
:10020000290800008F1100008F1100008F110000DD
:100210008F1100005D1100008F1100008F11000090
:100220008F1100008F1100008F1100008F1100004E
:100230008F1100008F1100008F1100008F1100003E
:1002400009480168094A1143016000200849094A28
:10025000914204D0914202D208600431FAD3064898
:10026000804706480047000088ED00E00000F000ED
:100270001000FF1F787B0020911100000514000082
:1002800080B483B000AF0346FB71094997F907308A
:100290005B09FA7902F01F02012000FA02F2203312
:1002A00041F823200C37BD465DF8047B704700BF42
:1002B00000E100E080B584B000AF03460A46FB7160
:1002C0001346BB71FB795B00DBB23B73BB797B737D
:1002D000012000F089F807F10C031A2019460222C8
:1002E00000F066FC1037BD4680BD00BF80B582B00F
:1002F00000AF3B600346FB710B46BB7113467B713D
:1003000000F0DEFB642000F093F80F200021FFF7DF
:10031000D1FF00201921FFF7CDFF01201921FFF7A0
:10032000C9FF02206F21FFF7C5FF03206F21FFF7F0
:10033000C1FFBB7904201946FFF7BCFF052000214F
:10034000FFF7B8FF06200021FFF7B4FF0720532175
:10035000FFF7B0FFFB7908201946FFF7ABFF092034
:100360000121FFF7A7FF1F4B00221A7097F90530F4
:10037000012B1ED197F907301846012100F0D2FC5D
:100380005B20FFF77DFF00F015F9386800F036FAC2
:10039000042000F04FFE042000F066FE00F080FE16
:1003A00000F08EFE00F022FE00F032FE00F098FE1B
:1003B00014E097F907301846002100F0B3FC042040
:1003C00000F038FE042000F04FFE00F021FE00F0A7
:1003D0000DFE386800F0ACFE00F082FE0837BD4626
:1003E00080BD00BFB081DE4280B584B000AF7860D0
:1003F00045F20823FB60FB680C4A02FB03F3BB6079
:1004000006E07A68FB68D31A7B60B86800F034F8BD
:100410007A68FB689A42F4D87B68044A02FB03F3CB
:10042000184600F029F81037BD4680BD400D030086
:1004300080B584B000AF78600E4BFB60FB68C822CB
:1004400002FB03F3BB6006E07A68FB68D31A7B60AB
:10045000B86800F011F87A68FB689A42F4D87B68B3
:10046000C82202FB03F3184600F006F81037BD4619
:1004700080BD00BF406F400180B483B000AF7860A2
:10048000800801D00138FDD10C37BD465DF8047BF2
:10049000704700BF80B483B000AF0346FB710849CA
:1004A00097F907305B09FA7902F01F02012000FA80
:1004B00002F241F823200C37BD465DF8047B7047FB
:1004C00000E100E080B483B000AF0346FB7109494E
:1004D00097F907305B09FA7902F01F02012000FA50
:1004E00002F2603341F823200C37BD465DF8047BEF
:1004F000704700BF00E100E080B483B000AF034666
:100500003960FB7197F90730002B0BDA0D49FB7945
:1005100003F00F03043B3A68D2B21201D2B20B448B
:100520001A7609E0084997F907303A68D2B2120101
:10053000D2B20B4483F800230C37BD465DF8047B30
:10054000704700BF00ED00E000E100E080B485B03E
:1005500000AF78607B6803F070631B0EDAB27B68D3
:1005600003F470031B0DDBB25340DAB27B6803F473
:1005700070231B0CDBB25340DAB27B6803F4704388
:100580001B0BDBB25340DAB27B6803F470631B0AC7
:10059000DBB25340DAB27B6803F0F0031B09DBB235
:1005A0005340FB73FB7B18461437BD465DF8047B54
:1005B000704700BF80B500AF884B1B6A1B0D03F06E
:1005C0000103DBB2012B04D0844B1A6A42F480127F
:1005D0001A62834B1B7ADBB2012B08D1804B0422B9
:1005E0001A7200BF7E4B1B7ADBB2002BFAD17D4A18
:1005F000137843F0030313707A4A13786FF383037D
:100600001370784A137843F010031370754A137807
:10061000012161F347131370724A5378022161F389
:10062000010353706F4A5378012161F384035370BF
:100630006C4A5378052161F347135370694A9378E4
:10064000102161F305039370664A937843F04003E9
:100650009370644A93786FF3C7139370614AD378A9
:10066000012161F30103D3705E4AD3786FF38303F2
:10067000D3705C4B1B681846FFF768FF034603F016
:100680000F03D9B2574AD37861F30713D370554B90
:1006900080221A71534B80225A71524B0122DA8008
:1006A000514A504B9A604F4B504ADA604D4A4D4B7D
:1006B0005B6813614A4B4B4A1A60494BDB225A6014
:1006C000474A474B9B6A43F000639362444A444B5A
:1006D0009B6E43F000639366424A137F43F003032B
:1006E0001377404A137F6FF3830313773D4A137FD9
:1006F00043F0100313773B4A137F012161F3471343
:100700001377384A537F022161F301035377354A47
:10071000537F052161F384035377324A537F0121CC
:1007200061F3471353772F4A937F102161F3050339
:1007300093772C4A937F43F040039377294A937F22
:100740006FF3C7139377274AD37F012161F3010326
:10075000D377244AD37F6FF38303D377214BDB69AD
:100760001846FFF7F3FE034603F00F03D9B21D4A04
:10077000D37F61F30713D3771A4B802283F82020AD
:10078000184B802283F82120164B01225A84154BE6
:10079000174A5A62174A134B9A62124A114B1B6A44
:1007A000D3620F4B144A5A600D4A0D4B9B6A43F0BB
:1007B000806393620A4A0A4B9B6E43F080639366A0
:1007C000074B74225A72064B10221A72044B2022D5
:1007D0001A72034B80221A7280BD00BF00C1034011
:1007E00000100640347B00201000FF1F04C00640AC
:1007F00000C006401002FF1FDA001C0080B582B066
:1008000000AF7860074A7B6813607020FFF75AFEDC
:100810007020FFF73FFE70200321FFF76DFE0837C1
:10082000BD4680BD1004FF1F80B500AF034B1B68A1
:10083000002B02D0014B1B68984780BD1004FF1F9E
:1008400080B487B000AF78600B46FB707B681B14E8
:10085000DB011A467B68DBB29B00134403F185433E
:1008600003F5BC037B617B681B14DB011A467B68C4
:10087000DBB29B00134403F18643A3F507133B61EE
:100880007B681B14DB011A467B68DBB29B001A44B1
:10089000684B1344FB607B681B14DB011A467B68C2
:1008A000DBB29B001A44644B1344BB60634A634B46
:1008B0001B78DBB243F00103DBB21370604B002204
:1008C0001A70604B00221A705F4B00221A705F4B47
:1008D00000221A705E4B00221A705E4B00221A70C2
:1008E0005D4B00221A705D4B00221A705C4B002297
:1008F0001A705C4B00221A705B4B00221A705B4B23
:1009000000221A705A4B00221A705A4B00221A7099
:10091000594B00221A70594B00221A70584B002272
:100920001A70584B00221A70574B00221A70574BFE
:1009300000221A70564B00221A70564B00221A7071
:10094000554B00221A70554B00221A70544B00224E
:100950001A70544B00221A70534B00221A70534BDA
:1009600000221A70524B00221A70524B00221A7049
:10097000514B00221A70514B00221A70FB78042B45
:1009800053D801A252F823F02B0A00009D09000061
:10099000BD090000D9090000FF0900007B691B7830
:1009A000DAB27B691A703B691B78DAB23B691A705C
:1009B000FB681B78DAB2FB681A7036E07B691B783B
:1009C000DAB27B691A703B6901221A70BB681B7826
:1009D000DAB2BB681A7028E07B691B78DAB27B69EF
:1009E0001A703B691B78DAB23B691A70FB681B7896
:1009F000DBB243F00103DAB2FB681A7015E07B69E1
:100A00001B78DAB27B691A703B691B78DBB243F062
:100A10000103DAB23B691A70BB681B78DBB243F0A2
:100A20000103DAB2BB681A7000BF1C37BD465DF81F
:100A3000047B70470020DE4200E0DE4270207842F6
:100A400000A0DE4204A0DE4208A0DE420CA0DE428E
:100A500010A0DE4214A0DE4218A0DE421CA0DE423E
:100A600020A0DE4224A0DE4228A0DE422CA0DE42EE
:100A700030A0DE4234A0DE4238A0DE423CA0DE429E
:100A800040A0DE4244A0DE4248A0DE424CA0DE424E
:100A900050A0DE4254A0DE4258A0DE425CA0DE42FE
:100AA00060A0DE4264A0DE4268A0DE426CA0DE42AE
:100AB00070A0DE4274A0DE4278A0DE427CA0DE425E
:100AC00080B400AF174B01221A70174B01221A7025
:100AD000164B01221A70164B01221A70154AB2F8F1
:100AE0000C3743F48063A2F80C37134BF9229A8138
:100AF000114A114B1B78DBB263F07F03DBB213703A
:100B00000E4B00221A700E4B00221A700A4A0A4B32
:100B10005B78DBB263F07F03DBB25370BD465DF8F8
:100B2000047B7047D4C3DE42AC01DE42CCC3DE425C
:100B3000A801DE4200F00640008203400C407042F3
:100B40000840704280B400AF034B01221A70BD46CA
:100B50005DF8047B704700BF3C42704280B500AF37
:100B6000044B00221A74034B00225A74FFF7EAFF69
:100B700080BD00BF0082034080B500AF034B202240
:100B80005A706420FFF754FC80BD00BF0082034010
:100B900080B483B000AF0346FB71044BFA7992B284
:100BA0001A810C37BD465DF8047B70470082034014
:100BB00080B586B000AF0346B9607A60FB7300234E
:100BC0007B61FB7B5B00FB73FFF7C8FFFB7B184679
:100BD000FFF7DEFF214B80225A7000BF204B1B78AD
:100BE000DBB2002BFAD0BB681B781846FFF7D0FFAA
:100BF0001C4B01221A701C4B01221A70184B002248
:100C00001A7000BF154B5B78DBB203F00103002BB9
:100C1000F8D001237B6114E07B69BA6813441B7828
:100C20001846FFF7B5FF0D4BB0225A7000BF0B4BB3
:100C30005B78DBB203F00103002BF8D07B69013352
:100C40007B617A697B689A42E6DBFFF795FF0A20B1
:100C5000FFF7CAFB1837BD4680BD00BF00820340C6
:100C600020407042344070423040704280B483B0C3
:100C700000AF0346FB71084997F907305B09FA7921
:100C800002F01F02012000FA02F241F823200C3783
:100C9000BD465DF8047B704700E100E080B483B09E
:100CA00000AF0346FB71094997F907305B09FA79F0
:100CB00002F01F02012000FA02F2603341F8232003
:100CC0000C37BD465DF8047B704700BF00E100E0D3
:100CD00080B483B000AF03463960FB7197F90730E9
:100CE000002B0BDA0D49FB7903F00F03043B3A6844
:100CF000D2B21201D2B20B441A7609E0084997F930
:100D000007303A68D2B21201D2B20B4483F8002302
:100D10000C37BD465DF8047B704700BF00ED00E076
:100D200000E100E080B483B000AF03460A46FB71E7
:100D30001346BB71A44B01221A70A44AA34BD3F8EB
:100D4000603643F00403C2F86036A14B01221A70EA
:100D50009E4A9E4BD3F8603643F48063C2F86036F7
:100D60009C4B01221A70994A984BD3F8603643F491
:100D70008073C2F86036974B01221A70934A934BE6
:100D8000D3F8603643F01003C2F86036924B01226C
:100D90001A708E4A8D4BD3F8603643F04003C2F888
:100DA00060368E4B01221A708D4B01221A708D4BCA
:100DB00000221A708C4B9A6922F001029A618A4BC8
:100DC0009A6822F07C429A6097F907300C2B08D180
:100DD000854A936823F07F7323F4403343F0B07364
:100DE000936097F90730182B08D17F4A936823F056
:100DF0007F7323F4403343F48003936097F9073003
:100E0000002B08D1784A936823F07F7323F4403392
:100E100043F40013936097F907301C2B06D1724AF4
:100E2000936823F07F7323F4403393606E4B9A688A
:100E300022F480429A606C4B9A6822F400529A60C5
:100E4000694B9A6822F480529A60674B9A6842F420
:100E500000629A60644B9A6822F480629A60624BE6
:100E60009A6822F400729A605F4B9A6822F480724A
:100E70009A605D4B9A6822F080029A605A4B9A6899
:100E800022F010029A60584B9A6842F008029A6069
:100E9000554B9A6822F004029A60534B9A6842F0CC
:100EA00002029A60504B9A6822F001029A604E4BFF
:100EB000DA6822F4F84242F48062DA604A4BDA6877
:100EC00022F4787242F4F072DA60474BDA6822F06A
:100ED0001F0242F00F02DA60434B03221A61424BB9
:100EE0001A6A42F000621A623F4B1A6A42F080426C
:100EF0001A623D4B1A6A42F000521A623A4B1A6A61
:100F000042F080621A6297F90630002B05D1364B09
:100F10001A6A42F000721A6208E097F90630012B53
:100F200004D1314B1A6A22F000721A6297F9063026
:100F3000002B05D12C4B1A6A22F080721A6208E04D
:100F400097F90630012B04D1274B1A6A42F08072C0
:100F50001A62254B1A6A42F080521A62224B1A6AB0
:100F600042F400121A62204B1A6A42F480121A628A
:100F70001D4B1A6A42F400221A6297F90630002BC0
:100F800005D1194B1A6A42F400321A6208E097F947
:100F90000630012B04D1144B1A6A22F400321A6273
:100FA000114B1A6A42F480221A620F4B1A6A42F4F9
:100FB00080321A620C4B1A6A22F030021A620C3725
:100FC000BD465DF8047B70474024784200F006403F
:100FD000B402DE42B802DE428401DE42BC02DE42DE
:100FE000B041DE4200007A4200C0064080B400AF4B
:100FF000064B9A6942F080729A61044B9A6822F01B
:1010000020029A60BD465DF8047B704700C0064030
:1010100080B400AF064B9A6942F480329A61044B67
:101020009A6822F040029A60BD465DF8047B7047E2
:1010300000C0064080B483B000AF7860094B7A6886
:10104000D2B2013AD2B202F00F02D2B202F00F02D3
:10105000196A21F00F010A431A620C37BD465DF888
:10106000047B704700C0064080B483B000AF786056
:101070000A4B7A68D2B2013AD2B202F00F02D2B26F
:1010800002F00F021202196A21F470610A431A6217
:101090000C37BD465DF8047B704700BF00C00640BA
:1010A00080B400AF044B01221A70044B01221A7065
:1010B000BD465DF8047B70472005D8420005D84244
:1010C00080B400AF044B01221A70044B01221A7045
:1010D000BD465DF8047B70476005D8424005D842A4
:1010E00080B400AF044B9A6942F001029A61BD4698
:1010F0005DF8047B704700BF00C0064080B400AFBD
:10110000034B1B681846BD465DF8047B704700BF63
:1011100000C0064080B483B000AF7860034A7B68AB
:1011200053600C37BD465DF8047B704700C0064035
:1011300080B582B000AF7860074A7B681360752085
:10114000FFF7ACFD7520FFF791FD75200221FFF739
:10115000BFFD0837BD4680BD1404FF1F80B500AF3A
:10116000054B1B68002B05D0034B1B689847752067
:10117000FFF794FD80BD00BF1404FF1FFEE7FEE7EC
:10118000FEE7FEE7FEE7FEE7FEE7FEE7FEE7FEE737
:1011900080B400AF3F4B404AC3F8002C3D4B3F4A60
:1011A000C3F8002C3B4B00229A604FF08043012291
:1011B0005A613B4B00221A61394B01225A61384B6C
:1011C00080229A61364B8122DA61354B83221A6282
:1011D000334B00229A62324B5C221A63304A304B06
:1011E0001B6843F00203136000BF2D4B5B6803F0E4
:1011F0000203002BF9D02A4B00225A63284B01220C
:101200009A63274B3122DA63254A254B1B6843F04A
:101210001003136000BF224B5B6803F01003002B28
:10122000F9D01F4A1E4B1B6843F0400313601C4B50
:101230001B68DBB223F01F03DAB21A4B1A70184B8B
:101240005B6803F0E003174A12789342EFD14FF046
:101250008043D3F80031C3F3090340F2FF329342D5
:1012600014D0114B114ADA600F4A4FF08043D3F883
:1012700000311B0CDBB213720B4B4FF08042D2F8E3
:10128000002192B29A80084B0022DA60BD465DF8D8
:10129000047B70470010014051E5CC1AAE1A33E5CB
:1012A000000001401804FF1F00E0024054E5CC1A82
:1012B00080B582B000AFFFF721FF03461A46454BC9
:1012C0001A60444B1B689AB2434B1A80414B1B680F
:1012D0001B0C9AB2414B1A803F4B1B889BB21BB22E
:1012E000DA0F13445B109BB21AB23C4B1B889BB2C3
:1012F0001BB2D90F0B445B109BB21BB2134407EE19
:10130000903AF8EEE77A364BC3ED007A354B1B681E
:10131000354A9B0013441B68344A1360314B1B68E9
:101320002F4A92ED007A324AD2ED007A67EE277AA0
:101330002D4A9B001344C3ED007A2A4B1B685A1CAC
:101340002C4B83FB02135912D317CB1A45F6C0510D
:1013500001FB03F3D31A234A1360214B93ED007A68
:10136000254BD3ED007A27EE277A204BD3ED007A78
:1013700077EE277A214BC3ED007A204BD3ED007A2C
:10138000FDEEE77AC7ED017ABB889AB2124B1A805C
:101390001A4BD3ED007AFDEEE77AC7ED017ABB88F0
:1013A0009AB20E4B1A800D4B1B889BB21BB21B04CA
:1013B0001A46094B1B889BB21BB29BB213441A46B8
:1013C0000F4B1A600E4B1B681846FFF7A3FE083739
:1013D000BD4680BD1C04FF1F2604FF1F2404FF1F01
:1013E0006C7B0020287B00202804FF1F747B0020DA
:1013F0000800FF1FF11976050C00FF1F707B00200D
:101400002004FF1F80B500AF4FF480300221FFF7AA
:1014100017FA002011210022014BFEF767FFFEE7BB
:10142000B1120000000000000800FF1F0800FF1FAD
:0814300008000000687B0100C8
:020000041FFFDC
:08000000400201600100000054
:080008000000003FF4FD343F4D
:00000001FF
