:100000000000022041020000D9160000DB160000AB
:10001000DD160000DF160000E11600000000000001
:10002000000000000000000000000000E3160000D7
:10003000E516000000000000E7160000E9160000C9
:10004000EB160000EB160000EB160000EB160000AC
:10005000EB160000EB160000EB160000EB1600009C
:10006000EB160000EB160000EB160000EB1600008C
:10007000EB160000EB160000EB160000EB1600007C
:10008000EB160000EB160000EB160000EB1600006C
:10009000EB160000EB160000EB160000EB1600005C
:1000A000EB160000EB160000EB160000EB1600004C
:1000B000EB160000EB160000EB160000EB1600003C
:1000C000EB160000EB160000EB160000EB1600002C
:1000D000EB160000EB160000EB160000EB1600001C
:1000E000EB160000EB160000EB160000EB1600000C
:1000F000EB160000EB160000EB160000EB160000FC
:10010000EB160000EB160000EB160000EB160000EB
:10011000EB160000EB160000EB160000EB160000DB
:10012000EB160000EB160000EB160000EB160000CB
:10013000EB160000EB160000EB160000EB160000BB
:10014000EB160000EB160000EB160000EB160000AB
:10015000EB160000EB160000EB160000EB1600009B
:10016000EB160000EB160000EB160000EB1600008B
:10017000EB160000EB160000EB160000EB1600007B
:10018000EB160000EB160000EB160000EB1600006B
:10019000EB160000EB160000EB160000EB1600005B
:1001A000EB160000EB160000EB160000EB1600004B
:1001B000EB160000EB160000EB160000EB1600003B
:1001C000EB160000EB160000EB160000EB1600002B
:1001D000EB160000EB160000EB160000EB1600001B
:1001E000EB160000EB160000EB160000EB1600000B
:1001F000EB160000EB160000EB160000EB160000FB
:10020000890A0000EB160000EB160000EB16000058
:10021000EB160000B1160000EB160000EB16000014
:10022000EB160000EB160000EB160000EB160000CA
:10023000EB160000EB160000EB160000EB160000BA
:1002400009480168094A1143016000200849094A28
:10025000914204D0914202D208600431FAD3064898
:10026000804706480047000088ED00E00000F000ED
:100270000000FF1F4005FF1FED160000BD1A000023
:1002800080B483B000AF0346FB714FF46143CEF2FC
:10029000000397F907204FEA5212F97901F01F0184
:1002A0004FF0010000FA01F102F1200243F82210A0
:1002B00007F10C07BD4680BC704700BF80B584B015
:1002C00000AF02460B46FA71BB71FB794FEA43035C
:1002D000DBB23B73BB797B734FF0010000F0AAF8EF
:1002E00007F10C034FF01A0019464FF0020200F01C
:1002F00031FE07F11007BD4680BD00BF80B582B05A
:1003000000AF3B600346FB710B46BB7113467B712C
:1003100000F084FD4FF0640000F0B6F84FF00F00DD
:100320004FF00001FFF7CAFF4FF000004FF0190136
:10033000FFF7C4FF4FF001004FF01901FFF7BEFFB8
:100340004FF002004FF06F01FFF7B8FF4FF00300CE
:100350004FF06F01FFF7B2FFBB794FF00400194671
:10036000FFF7ACFF4FF005004FF00001FFF7A6FFCD
:100370004FF006004FF00001FFF7A0FF4FF007001D
:100380004FF05301FFF79AFFFB794FF00800194631
:10039000FFF794FF4FF009004FF00101FFF78EFFC8
:1003A00048F2B013C4F2DE234FF000021A7097F93E
:1003B0000530012B22D197F9073018464FF0010183
:1003C00000F0A8FE4FF05B00FFF75AFF00F036F98F
:1003D000386800F03DFB4FF0040001F0C7F84FF023
:1003E000040001F0DDF801F0F5F801F007F901F083
:1003F00091F801F0A5F801F015F917E097F9073029
:1004000018464FF0000100F085FE4FF0040001F0A7
:10041000ADF84FF0040001F0C3F801F091F801F0DD
:1004200079F8386801F028F901F0FCF807F10807BD
:10043000BD4680BD80B584B000AF786045F208232A
:10044000FB60FA684FF45463C0F2030303FB02F34A
:10045000BB6006E07A68FB68D31A7B60B86800F07E
:100460003BF87A68FB689A42F4D87A684FF4546390
:10047000C0F2030303FB02F3184600F02DF807F166
:100480001007BD4680BD00BF80B584B000AF786066
:1004900046F64073C0F24013FB60FB684FF0C802A1
:1004A00002FB03F3BB6006E07A68FB68D31A7B604B
:1004B000B86800F011F87A68FB689A42F4D87B6853
:1004C0004FF0C80202FB03F3184600F005F807F1ED
:1004D0001007BD4680BD00BF80B483B000AF786018
:1004E000800800F0038001387FF4FDAF07F10C07AE
:1004F000BD4680BC704700BF80B483B000AF0346E8
:10050000FB714FF46143CEF2000397F907204FEAE5
:100510005212F97901F01F014FF0010000FA01F1C8
:1005200043F8221007F10C07BD4680BC704700BF9E
:1005300080B483B000AF0346FB714FF46143CEF249
:10054000000397F907204FEA5212F97901F01F01D1
:100550004FF0010000FA01F102F1600243F82210AD
:1005600007F10C07BD4680BC704700BF80B483B064
:1005700000AF03463960FB7197F90730002B10DAA2
:100580004FF46D43CEF20003FA7902F00F02A2F1AC
:1005900004013A68D2B24FEA0212D2B25B181A765C
:1005A0000DE04FF46143CEF2000397F907103A686B
:1005B000D2B24FEA0212D2B25B1883F8002307F1DD
:1005C0000C07BD4680BC704780B485B000AF786032
:1005D0007B6803F070634FEA1363DAB27B6803F45D
:1005E00070034FEA1353DBB25340DAB27B6803F473
:1005F00070234FEA1343DBB25340DAB27B6803F453
:1006000070434FEA1333DBB25340DAB27B6803F432
:1006100070634FEA1323DBB25340DAB27B6803F016
:10062000F0034FEA1313DBB25340FB73FB7B184616
:1006300007F11407BD4680BC704700BF80B500AF0E
:100640004FF44143C4F203031B6A03F48013002BED
:1006500007D14FF44143C4F203031A6A42F48012F3
:100660001A624FF48053C4F206031B7ADBB2012BEB
:100670000FD14FF48053C4F206034FF004021A72F4
:1006800000BF4FF48053C4F206031B7ADBB2002B89
:10069000F7D140F22443C1F6FF731A7842F0030207
:1006A0001A7040F22443C1F6FF731A786FF3830285
:1006B0001A7040F22443C1F6FF731A7842F0100218
:1006C0001A7040F22443C1F6FF731A784FF001010B
:1006D00061F347121A7040F22443C1F6FF735A784F
:1006E0004FF0020161F301025A7040F22443C1F657
:1006F000FF735A784FF0010161F384025A7040F29F
:100700002443C1F6FF735A784FF0050161F3471295
:100710005A7040F22443C1F6FF739A784FF01001EB
:1007200061F305029A7040F22443C1F6FF739A7890
:1007300042F040029A7040F22443C1F6FF739A7867
:100740006FF3C7129A7040F22443C1F6FF73DA7850
:100750004FF0010161F30102DA7040F22443C1F667
:10076000FF73DA786FF38302DA7040F22443C1F644
:10077000FF731B681846FFF727FF034603F00F03BC
:10078000D9B240F22443C1F6FF73DA7861F307125D
:10079000DA7040F22443C1F6FF731A796FF07F01DB
:1007A00061F307021A7140F22443C1F6FF735A79CC
:1007B0006FF07F0161F307025A7140F22443C1F6E2
:1007C000FF73DA884FF0010161F30F02DA8040F223
:1007D0000002C1F6FF7240F22443C1F6FF739A6033
:1007E00040F22443C1F6FF734CF20402C4F2060245
:1007F000DA6040F22443C1F6FF7340F22442C1F6AE
:10080000FF7252681A614FF48053C4F2060340F23B
:100810002442C1F6FF721A604FF48053C4F20603FB
:100820004FF0DB025A604FF48053C4F206034FF4DA
:100830008052C4F20602926A42F000629A624FF459
:100840008053C4F206034FF48052C4F20602926E43
:1008500042F000629A6640F22443C1F6FF731A7FA9
:1008600042F003021A7740F22443C1F6FF731A7F65
:100870006FF383021A7740F22443C1F6FF731A7FA5
:1008800042F010021A7740F22443C1F6FF731A7F38
:100890004FF0010161F347121A7740F22443C1F689
:1008A000FF735A7F4FF0020161F301025A7740F261
:1008B0002443C1F6FF735A7F4FF0050161F38402B0
:1008C0005A7740F22443C1F6FF735A7F4FF001017B
:1008D00061F347125A7740F22443C1F6FF739A7FBF
:1008E0004FF0100161F305029A7740F22443C1F6FC
:1008F000FF739A7F42F040029A7740F22443C1F698
:10090000FF739A7F6FF3C7129A7740F22443C1F6C0
:10091000FF73DA7F4FF0010161F30102DA7740F2F1
:100920002443C1F6FF73DA7F6FF38302DA7740F274
:100930002443C1F6FF73DB691846FFF745FE034603
:1009400003F00F03D9B240F22443C1F6FF73DA7FFC
:1009500061F30712DA7740F22443C1F6FF7393F88C
:1009600020206FF07F0161F3070283F8202040F21E
:100970002443C1F6FF7393F821206FF07F0161F3E8
:10098000070283F8212040F22443C1F6FF735A8CFA
:100990004FF0010161F30F025A8440F22443C1F683
:1009A000FF734FF44042C4F206025A6240F2002242
:1009B000C1F6FF7240F22443C1F6FF739A6240F21F
:1009C0002443C1F6FF7340F22442C1F6FF72126A5B
:1009D000DA624FF48053C4F206034FF0DA02C0F239
:1009E0001C025A604FF48053C4F206034FF4805245
:1009F000C4F20602926A42F080629A624FF4805317
:100A0000C4F206034FF48052C4F20602926E42F022
:100A100080629A664FF48053C4F206034FF074026A
:100A20005A724FF48053C4F206034FF010021A7248
:100A30004FF48053C4F206034FF020021A724FF4B1
:100A40008053C4F206034FF080021A7280BD00BFCB
:100A500080B582B000AF786040F20043C1F6FF730A
:100A60007A681A604FF07000FFF762FD4FF0700077
:100A7000FFF742FD4FF070004FF00301FFF776FDE6
:100A800007F10807BD4680BD80B500AF40F20043C6
:100A9000C1F6FF731B68002B05D040F20043C1F67E
:100AA000FF731B68984780BD80B487B000AF786043
:100AB0000B46FB707B684FEA23434FEAC3131A4689
:100AC0007B68DBB24FEA8303D31803F1854303F558
:100AD000BC037B617B684FEA23434FEAC3131A468A
:100AE0007B68DBB24FEA8303D31803F18643A3F597
:100AF00007133B617B684FEA23434FEAC3131A464F
:100B00007B68DBB24FEA8303D2184FF40053C4F280
:100B1000DE23D318FB607B684FEA23434FEAC313FD
:100B20001A467B68DBB24FEA8303D2184FF4604366
:100B3000C4F2DE23D318BB6042F27003C4F2782300
:100B400042F27002C4F278221278D2B242F001026C
:100B5000D2B21A704FF42043C4F2DE234FF00002E9
:100B60001A704AF20403C4F2DE234FF000021A7036
:100B70004AF20803C4F2DE234FF000021A704AF270
:100B80000C03C4F2DE234FF000021A704AF2100385
:100B9000C4F2DE234FF000021A704AF21403C4F2CA
:100BA000DE234FF000021A704AF21803C4F2DE236B
:100BB0004FF000021A704AF21C03C4F2DE234FF019
:100BC00000021A704AF22003C4F2DE234FF0000242
:100BD0001A704AF22403C4F2DE234FF000021A70A6
:100BE0004AF22803C4F2DE234FF000021A704AF2E0
:100BF0002C03C4F2DE234FF000021A704AF23003D5
:100C0000C4F2DE234FF000021A704AF23403C4F239
:100C1000DE234FF000021A704AF23803C4F2DE23DA
:100C20004FF000021A704AF23C03C4F2DE234FF088
:100C300000021A704AF24003C4F2DE234FF00002B1
:100C40001A704AF24403C4F2DE234FF000021A7015
:100C50004AF24803C4F2DE234FF000021A704AF24F
:100C60004C03C4F2DE234FF000021A704AF2500324
:100C7000C4F2DE234FF000021A704AF25403C4F2A9
:100C8000DE234FF000021A704AF25803C4F2DE234A
:100C90004FF000021A704AF25C03C4F2DE234FF0F8
:100CA00000021A704AF26003C4F2DE234FF0000221
:100CB0001A704AF26403C4F2DE234FF000021A7085
:100CC0004AF26803C4F2DE234FF000021A704AF2BF
:100CD0006C03C4F2DE234FF000021A704AF2700374
:100CE000C4F2DE234FF000021A704AF27403C4F219
:100CF000DE234FF000021A704AF27803C4F2DE23BA
:100D00004FF000021A704AF27C03C4F2DE234FF067
:100D100000021A70FB78042B54D801A252F823F079
:100D2000C50D0000350D0000550D0000730D0000CD
:100D3000990D00007B691B78DAB27B691A703B69F8
:100D40001B78DAB23B691A70FB681B78DAB2FB6871
:100D50001A7037E07B691B78DAB27B691A703B69DD
:100D60004FF001021A70BB681B78DAB2BB681A70C8
:100D700028E07B691B78DAB27B691A703B691B78C3
:100D8000DAB23B691A70FB681B78DBB243F00103EF
:100D9000DAB2FB681A7015E07B691B78DAB27B69FE
:100DA0001A703B691B78DBB243F00103DAB23B698E
:100DB0001A70BB681B78DBB243F00103DAB2BB6880
:100DC0001A7000BF07F11C07BD4680BC704700BF0A
:100DD00080B485B000AF786039607B684FEA234308
:100DE0004FEAC3131A467B68DBB24FEA8303D3187A
:100DF00003F1854303F5BD03FB603B68012B04D180
:100E0000FB684FF001021A7003E0FB684FF000022C
:100E10001A7007F11407BD4680BC704780B400AF5C
:100E20004CF2D433C4F2DE234FF001021A704FF4B7
:100E3000D673C4F2DE234FF001021A704CF2CC33A9
:100E4000C4F2DE234FF001021A704FF4D473C4F2DF
:100E5000DE234FF001021A704FF47043C4F2060310
:100E6000B3F80C2742F48062A3F80C274FF4024336
:100E7000C4F203034FF0F9029A814FF40243C4F223
:100E800003034FF40242C4F203021278D2B262F0BA
:100E90007F02D2B21A7044F20C03C4F270234FF0F6
:100EA00000021A7044F20803C4F270234FF00002EB
:100EB0001A704FF40243C4F203034FF40242C4F227
:100EC00003025278D2B262F07F02D2B25A70BD46AB
:100ED00080BC704780B400AF44F23C23C4F270235E
:100EE0004FF001021A70BD4680BC704780B500AF5C
:100EF0004FF40243C4F203034FF000021A744FF49C
:100F00000243C4F203034FF000025A74FFF7E2FFFA
:100F100080BD00BF80B500AF4FF40243C4F20303AD
:100F20004FF020025A704FF06400FFF7ADFA80BD19
:100F300080B483B000AF0346FB714FF40243C4F2A8
:100F40000303FA7992B21A8107F10C07BD4680BCFF
:100F5000704700BF80B586B000AF0346B9607A60C5
:100F6000FB734FF000037B61FB7B4FEA4303FB7392
:100F7000FFF7BCFFFB7B1846FFF7DAFF4FF4024395
:100F8000C4F203034FF080025A7000BF44F2200302
:100F9000C4F270231B78DBB2002BF7D0BB681B7840
:100FA0001846FFF7C5FF44F23403C4F270234FF034
:100FB00001021A7044F23003C4F270234FF00102B0
:100FC0001A7044F22003C4F270234FF000021A702A
:100FD00000BF4FF40243C4F203035B78DBB203F0BB
:100FE0000103002BF5D04FF001037B611CE07B690E
:100FF000BA68D3181B781846FFF79AFF4FF40243DC
:10100000C4F203034FF0B0025A7000BF4FF4024322
:10101000C4F203035B78DBB203F00103002BF5D0CD
:101020007B6903F101037B617A697B689A42DEDBAD
:10103000FFF770FF4FF00A00FFF7FCF907F1180700
:10104000BD4680BD80B483B000AF0346FB714FF452
:101050006143CEF2000397F907204FEA5212F97963
:1010600001F01F014FF0010000FA01F143F82210D6
:1010700007F10C07BD4680BC704700BF80B483B049
:1010800000AF0346FB714FF46143CEF2000397F9C2
:1010900007204FEA5212F97901F01F014FF00100C9
:1010A00000FA01F102F1600243F8221007F10C0787
:1010B000BD4680BC704700BF80B483B000AF03461C
:1010C0003960FB7197F90730002B10DA4FF46D434C
:1010D000CEF20003FA7902F00F02A2F104013A689D
:1010E000D2B24FEA0212D2B25B181A760DE04FF478
:1010F0006143CEF2000397F907103A68D2B24FEA83
:101100000212D2B25B1883F8002307F10C07BD4628
:1011100080BC704780B483B000AF02460B46FA71C2
:10112000BB714FF41153C4F278234FF001021A70CF
:101130004FF47043C4F206034FF47042C4F2060247
:10114000D2F8602642F00402C3F860264FF42D73F3
:10115000C4F2DE234FF001021A704FF47043C4F260
:1011600006034FF47042C4F20602D2F8602642F43D
:101170008062C3F860264FF42E73C4F2DE234FF072
:1011800001021A704FF47043C4F206034FF4704228
:10119000C4F20602D2F8602642F48072C3F86026D8
:1011A0004FF42E73C4F2DE234FF001021A704FF495
:1011B0007043C4F206034FF47042C4F20602D2F840
:1011C000602642F01002C3F860264FF4C273C4F2E6
:1011D000DE234FF001021A704FF47043C4F206038D
:1011E0004FF47042C4F20602D2F8602642F0400288
:1011F000C3F860264FF42F73C4F2DE234FF00102D0
:101200001A7044F2B013C4F2DE234FF001021A70D8
:101210004FF00003C4F27A234FF000021A704FF42B
:101220004043C4F206039A696FF300029A614FF4D7
:101230004043C4F206039A686FF39F629A6097F97D
:1012400007300C2B09D14FF44043C4F206039A68CF
:101250004FF4B07161F319429A6097F90730182B77
:1012600009D14FF44043C4F206039A684FF040019D
:1012700061F319429A6097F90730002B09D14FF4B6
:101280004043C4F206039A684FF0200161F319420B
:101290009A6097F907301C2B07D14FF44043C4F2F2
:1012A00006039A686FF319429A604FF44043C4F200
:1012B00006039A686FF38E329A604FF44043C4F28B
:1012C00006039A686FF34D329A604FF44043C4F2BC
:1012D00006039A686FF30C329A604FF44043C4F2ED
:1012E00006039A6842F400629A604FF44043C4F2E5
:1012F00006039A686FF38A229A604FF44043C4F25F
:1013000006039A686FF349229A604FF44043C4F28F
:1013100006039A686FF308229A604FF44043C4F2C0
:1013200006039A686FF3C7129A604FF44043C4F201
:1013300006039A686FF304129A604FF44043C4F2B4
:1013400006039A6842F008029A604FF44043C4F2E0
:1013500006039A686FF382029A604FF44043C4F226
:1013600006039A6842F002029A604FF44043C4F2C6
:1013700006039A686FF300029A604FF44043C4F288
:101380000603DA684FF0010161F38E22DA604FF450
:101390004043C4F20603DA684FF00F0161F34912CB
:1013A000DA604FF44043C4F20603DA684FF00F01ED
:1013B00061F30402DA604FF44043C4F206034FF0D5
:1013C00003021A614FF44043C4F206031A6A42F062
:1013D00000621A624FF44043C4F206031A6A42F0F4
:1013E00080421A624FF44043C4F206031A6A42F084
:1013F00000521A624FF44043C4F206031A6A42F0E4
:1014000080621A6297F90630002B08D14FF44043EE
:10141000C4F206031A6A42F000721A620BE097F9EE
:101420000630012B07D14FF44043C4F206031A6A79
:101430006FF359621A6297F90630002B08D14FF406
:101440004043C4F206031A6A6FF318621A620BE093
:1014500097F90630012B07D14FF44043C4F206033D
:101460001A6A42F080721A624FF44043C4F20603D3
:101470001A6A42F080521A624FF44043C4F20603E3
:101480001A6A42F400121A624FF44043C4F206038F
:101490001A6A42F480121A624FF44043C4F20603FF
:1014A0001A6A42F400221A6297F90630002B08D11A
:1014B0004FF44043C4F206031A6A42F400321A623F
:1014C0000BE097F90630012B07D14FF44043C4F2EB
:1014D00006031A6A6FF351421A624FF44043C4F292
:1014E00006031A6A42F480221A624FF44043C4F29F
:1014F00006031A6A42F480321A624FF44043C4F27F
:1015000006031A6A6FF305121A6207F10C07BD464B
:1015100080BC704780B400AF4FF44043C4F2060370
:101520009A6942F080729A614FF44043C4F2060314
:101530009A686FF345129A60BD4680BC704700BF41
:1015400080B400AF4FF44043C4F206039A6942F4FA
:1015500080329A614FF44043C4F206039A686FF3F5
:1015600086129A60BD4680BC704700BF80B483B0CD
:1015700000AF78604FF44043C4F206037A68D2B2F9
:1015800002F1FF32D2B202F00F02D1B21A6A61F355
:1015900003021A6207F10C07BD4680BC704700BF0A
:1015A00080B483B000AF78604FF44043C4F20603C8
:1015B0007A68D2B202F1FF32D2B202F00F02D1B297
:1015C0001A6A61F30B221A6207F10C07BD4680BC50
:1015D000704700BF80B400AF4FF4A463C4F2D823B7
:1015E0004FF001021A704FF4A063C4F2D8234FF0F9
:1015F00001021A70BD4680BC704700BF80B400AFC6
:101600004FF4AC63C4F2D8234FF001021A704FF4C8
:10161000A863C4F2D8234FF001021A70BD4680BC03
:10162000704700BF80B400AF4FF44043C4F20603DC
:101630009A6942F001029A61BD4680BC704700BFC2
:1016400080B400AF4FF44043C4F206031B68184651
:10165000BD4680BC704700BF80B483B000AF7860E7
:101660004FF44043C4F206037A685A6007F10C074E
:10167000BD4680BC704700BF80B582B000AF7860C7
:1016800040F20443C1F6FF737A681A604FF07500A8
:10169000FFF7F4FC4FF07500FFF7D4FC4FF0750036
:1016A0004FF00201FFF708FD07F10807BD4680BDB6
:1016B00080B500AF40F20443C1F6FF731B68002BF6
:1016C00009D040F20443C1F6FF731B6898474FF0FE
:1016D0007500FFF7D3FC80BDFEE7FEE7FEE7FEE7FF
:1016E000FEE7FEE7FEE7FEE7FEE7FEE780B400AFB9
:1016F0004FF48053C4F201034EF25152C1F6CC2292
:10170000C3F8002C4FF48053C4F2010341F6AE221B
:10171000CEF23352C3F8002C4FF48053C4F20103CD
:101720004FF000029A604FF080434FF001025A617F
:101730004FF00003C4F201034FF000021A614FF0B2
:101740000003C4F201034FF001025A614FF000039D
:10175000C4F201034FF080029A614FF00003C4F21B
:1017600001034FF08102DA614FF00003C4F201037C
:101770004FF083021A624FF00003C4F201034FF0EE
:1017800000029A624FF00003C4F201034FF05C02C2
:101790001A634FF00003C4F201034FF00002C4F2D9
:1017A0000102126842F002021A6000BF4FF000030B
:1017B000C4F201035B6803F00203002BF6D04FF084
:1017C0000003C4F201034FF000025A634FF000031C
:1017D000C4F201034FF001029A634FF00003C4F218
:1017E00001034FF03102DA634FF00003C4F201034A
:1017F0004FF00002C4F20102126842F010021A60B7
:1018000000BF4FF00003C4F201035B6803F0100354
:10181000002BF6D04FF00003C4F201034FF000029A
:10182000C4F20102126842F040021A604FF0000355
:10183000C4F201031B68DBB223F01F03DAB240F2EB
:101840000843C1F6FF731A704FF00003C4F201039E
:101850005B6803F0E00240F20843C1F6FF731B78B7
:101860009A42E3D14FF08043D3F800314FEA8353DB
:101870004FEA935340F2FF32934225D04FF4604336
:10188000C4F202034EF25452C1F6CC22DA604FF495
:101890006043C4F202034FF08042D2F800214FEAC5
:1018A0001242D2B21A724FF46043C4F202034FF0F4
:1018B0008042D2F8002192B29A804FF46043C4F281
:1018C00002034FF00002DA60BD4680BC704700BFE3
:1018D00080B582B000AF784B7B60FFF7B1FE034666
:1018E0001A4640F20C43C1F6FF731A6040F20C43F3
:1018F000C1F6FF731B689AB240F21643C1F6FF733C
:101900001A8040F20C43C1F6FF731B684FEA134381
:101910009AB240F21443C1F6FF731A804FF480303C
:101920004FF00101FFF754FA40F21843C1F6FF737C
:101930001A8811B240F21643C1F6FF731B889BB29E
:101940001BB207EE103AF8EEC77A40F25C43C1F6DC
:10195000FF734FEA81015B18C3ED007A134603F170
:1019600001039AB240F21843C1F6FF731A8040F2A5
:101970001843C1F6FF731B881BB2362B06DD40F2FD
:101980001843C1F6FF734FF000021A8040F238533B
:10199000C1F6FF734FF000021A804AE040F238535C
:1019A000C1F6FF731B881AB241F6E823C0F20003A8
:1019B0004FEA82029B1893ED007A40F21843C1F679
:1019C000FF731A8811B240F25C43C1F6FF734FEA0D
:1019D00081015B18D3ED007A67EE277A97ED017AE3
:1019E00077EE277AC7ED017A134603F101039AB225
:1019F00040F21843C1F6FF731A8040F21843C1F653
:101A0000FF731B881BB2362B06DD40F21843C1F66C
:101A1000FF734FF000021A8040F23853C1F6FF7393
:101A20001B8803F101039AB240F23853C1F6FF73E9
:101A30001A8040F23853C1F6FF731B881BB2362B55
:101A4000ACDDD7ED017AFDEEE77A17EE903A9AB267
:101A500040F21643C1F6FF731A804FF480304FF006
:101A60000001FFF7B5F940F21643C1F6FF731B887A
:101A70009BB21BB24FEA03431A4640F21643C1F62B
:101A8000FF731B889BB21BB24FEA03434FEA134319
:101A9000D3181A4640F21043C1F6FF731A6040F2A1
:101AA0001043C1F6FF731B681846FFF7D5FD07F119
:101AB0000807BD4680BD00BF0000000080B500AF34
:101AC0004FF480304FF00201FEF7EEFF4FF00000C0
:101AD0004FF011014FF0000241F6D103C0F20003B4
:101AE000FEF70CFCFEE700BF37F375BB38737E3B97
:101AF0009EEB7B3C91146C3BABB84CBBFFE81B3BB3
:101B00007222B0BA9BE103B3AAF5D93AD4006FBBF5
:101B1000F4CFC23B8DEF0BBC9FE83ABD8CBF6DBCD0
:101B2000CBDB913C38F9ADBC6ABECA3CF9A0E73DBD
:101B30004A0C023D05C50FBD5FB31C3D008F28BD9B
:101B40005D1633BE390E3CBD9240433DF18248BD27
:101B5000FAB74B3DCDCC4C3EFAB74B3DF18248BD78
:101B60009240433D390E3CBD5D1633BE008F28BD0B
:101B70005FB31C3D05C50FBD4A0C023DF9A0E73D12
:101B80006ABECA3C38F9ADBCCBDB913C8CBF6DBCA6
:101B90009FE83ABD8DEF0BBCF4CFC23BD4006FBBC6
:101BA000AAF5D93A9BE103B37222B0BAFFE81B3B16
:101BB000ABB84CBB91146C3B9EEB7B3C38737E3BCB
:101BC00037F375BB00000000E01B00000000FF1FA2
:081BD0000000000040050000C8
:081BD80068E6FF7F0100000038
:00000001FF
